:020000040800F2
:100000000050002095100008E5100008E5100008D9
:10001000E5100008E5100008E510000800000000E9
:10002000000000000000000000000000E5100008D3
:10003000E510000800000000E5100008B9090008FC
:10004000E5100008E5100008E5100008E5100008BC
:10005000E5100008E5100008E5100008E5100008AC
:10006000E5100008E5100008E5100008E51000089C
:10007000E5100008E5100008E5100008E51000088C
:10008000E5100008E5100008E5100008E51000087C
:10009000E5100008E5100008E5100008E51000086C
:1000A000E5100008E5100008E5100008E51000085C
:1000B000E5100008E5100008E5100008E51000084C
:1000C000E5100008E5100008E5100008ED0700083D
:1000D00049080008710D0008850D0008990D0008F9
:1000E000E5100008E510000800000000E510000819
:1000F000E5100008E5100008E5100008E51000080C
:10010000E5100008E5100008E5100008E5100008FB
:10011000E5100008E5100008E5100008E5100008EB
:10012000E5100008E5100008E5100008E5100008DB
:1001300010B5054C237833B9044B13B10448AFF321
:1001400000800123237010BD040000200000000087
:100150003011000808B5034B1BB103490348AFF346
:10016000008008BD000000000800002030110008D9
:1001700080B483B000AF0346FB80FB88802B42D065
:10018000802B11DC082B36D0082B06DC022B2ED05E
:10019000042B2ED0012B28D047E0202B2FD0402B32
:1001A0002FD0102B29D040E0B3F5006F33D0B3F53A
:1001B000006F09DCB3F5007F29D0B3F5806F28D03C
:1001C000B3F5807F21D030E0B3F5005F27D0B3F5E1
:1001D000005F03DCB3F5805F1FD026E0B3F5804FEE
:1001E0001FD0B3F5004F1ED01FE000231EE00423F4
:1001F0001CE008231AE00C2318E0102316E0142357
:1002000014E0182312E01C2310E000230EE0042366
:100210000CE008230AE00C2308E0102306E0142376
:1002200004E0182302E01C2300E0002318460C37EA
:10023000BD4680BC704790B585B000AF786039602E
:100240000023BB600023FB733B681B88FF2B01D896
:100250007B6801E07B680433BB603B681B88184601
:10026000FFF786FF03461A460F239340DA43BB6825
:100270001B681A40BB681A603B689B78072B0BD041
:100280003B689B78062B07D03B689B78052B03D0F7
:100290003B689B78042B1CD13B689B78043B9B00FC
:1002A0005AB23B68DB785BB213435BB2DBB203F05C
:1002B0000F03FB73FC7B3B681B881846FFF758FF56
:1002C000034604FA03F2BB681B681A43BB681A6052
:1002D0002CE03B689B78012B03D03B689B78002B7C
:1002E00007D13B689B789B00DBB203F00F03FB73E5
:1002F0001CE03B689B78082B02D10423FB7315E0BC
:100300000823FB733B689B78022B07D17B68DB6873
:100310003A6812881A437B68DA6007E07B68DB681A
:100320003A681288D2431A407B68DA60FC7B3B68EB
:100330001B881846FFF71CFF034604FA03F2BB684C
:100340001B681A43BB681A6000BF1437BD4690BDD6
:1003500080B485B000AF78600B467B807B689A687C
:100360007B881340002B02D00123FB7301E00023A4
:10037000FB73FB7B18461437BD4680BC704780B4C6
:1003800083B000AF78600B467B8013467B707B7830
:10039000002B03D07A887B681A6102E07A887B6838
:1003A0005A6100BF0C37BD4680BC704780B400AFB7
:1003B0000A4B5B689B0803F00303012B06D0012B5B
:1003C00002D3022B04D005E0054B03E0054B01E00E
:1003D000044BFFE71846BD4680BC70470010024042
:1003E00000127A000024F40080B500AFFFF7DEFFB2
:1003F0000146054B5B681B0903F00F03034AD35CFE
:1004000021FA03F3184680BD00100240581100087D
:1004100080B500AFFFF7E8FF0146054B5B681B0A9C
:1004200003F00703034AD35C21FA03F3184680BDA7
:10043000001002405011000880B500AFFFF7D4FF54
:100440000146054B5B68DB0A03F00703034AD35CF4
:1004500021FA03F3184680BD001002405011000835
:10046000B0B485B000AF786039600023FB81002311
:10047000BB817B68494A934213D1494A3B68144681
:100480001D460FCD0FC495E8030084E80300454BDB
:10049000434A1A60444B9B69434A43F48053936137
:1004A00016E07B68414A934212D1414A3B681446A8
:1004B0001D460FCD0FC495E8030084E80300394BB7
:1004C0003B4A5A60384B9B69374A43F480439361F7
:1004D0004023FB813B681A88FB891343FB813B68FF
:1004E0005A88FB891343FB813B689A88FB89134335
:1004F000FB813B68DA88FB891343FB813B681A89DF
:10050000FB891343FB813B685A89FB891343FB81B9
:100510003B689B89042B05D13B689A89BB891343AF
:10052000BB8104E03B689A89FB891343FB813B68EC
:10053000DA89FB891343FB813B681B8A002B19D0A6
:100540003B681A8ABB891343BB817B68134A934279
:1005500006D1184B1B68174A43F00803136009E0E3
:100560007B68124A934205D1124B1B68114A43F033
:1005700010031360FA897B681A60BA897B685A6035
:100580007B68DB6923F400627B68DA617B680022A8
:100590001A6100BF1437BD46B0BC7047003001403F
:1005A00070000020200000200010024000380040B1
:1005B0005800002004E100E080B485B000AFF8608E
:1005C000B9601346FB7100BFFB689B6803F0020330
:1005D000002BF9D0BB681B881A46FB68DA6000BFA5
:1005E000FB689B6803F00103002BF9D0FB68DB6814
:1005F0009AB2BB681A8000BF1437BD4680BC7047F2
:1006000080B584B000AF78607B68734A934269D14B
:10061000724B1B681B88042B34D1704B1B689B8961
:10062000042B0CD11023BB810623BB730123FB7366
:1006300007F10C0319466A48FFF7FDFD00BF2023B0
:10064000BB810623BB730123FB7307F10C0319461F
:100650006348FFF7F0FD4023BB810123BB7307F123
:100660000C0319465E48FFF7E6FD8023BB81062395
:10067000BB730123FB7307F10C0319465848FFF7BE
:10068000DAFDA5E0554B1B689B89002B09D110238F
:10069000BB810123BB7307F10C0319465048FFF7D8
:1006A000CAFD2023BB810123BB7307F10C0319464C
:1006B0004B48FFF7C0FD4023BB810623BB730123DA
:1006C000FB7307F10C0319464548FFF7B4FD80237F
:1006D000BB810123BB7307F10C0319464048FFF7A8
:1006E000AAFD75E07B683F4A934271D13B4B5B6842
:1006F0001B88042B38D1394B5B689B89042B0DD1A7
:100700004FF48053BB810623BB730123FB7307F1B6
:100710000C0319463448FFF78EFD00BF4FF4005319
:10072000BB810623BB730123FB7307F10C0319463E
:100730002D48FFF780FD4FF48043BB810123BB733D
:1007400007F10C0319462848FFF775FD4FF40043E5
:10075000BB810623BB730123FB7307F10C0319460E
:100760002148FFF768FD33E01C4B5B689B89002B39
:100770000BD14FF48053BB810123BB7307F10C03F2
:1007800019461948FFF757FD00BF4FF40053BB81CE
:100790000123BB7307F10C0319461348FFF74BFD08
:1007A0004FF48043BB810623BB730123FB7307F126
:1007B0000C0319460C48FFF73EFD4FF40043BB8184
:1007C0000123BB7307F10C0319460748FFF733FDFC
:1007D00000BF1037BD4680BD003001402000002022
:1007E0000008014000380040000C014080B582B094
:1007F00000AF134B9B685B0803F00103DAB23B794F
:1008000062F300033B710E4B9B6803F00103DAB205
:100810003B7962F341033B71094B9B681B0903F071
:100820000103DAB23B7962F382033B71054B1B682B
:100830005B693879984700BF0837BD4680BD00BF67
:10084000003001402000002080B582B000AF134B83
:100850009B685B0803F00103DAB23B7962F30003A3
:100860003B710E4B9B6803F00103DAB23B7962F3F4
:1008700041033B71094B9B681B0903F00103DAB28A
:100880003B7962F382033B71054B5B685B693879A6
:10089000984700BF0837BD4680BD00BF0038004004
:1008A0002000002080B483B000AF78601D4B002290
:1008B0001A607B681B78012B09D11A4B1B68194AF7
:1008C00043F004031360184B08221A700CE07B6895
:1008D0001B78002B08D1134B1B68124A23F004032A
:1008E0001360114B01221A707B685B78012B09D1D0
:1008F0000C4B1B680B4A43F0020313600B4A7B68E6
:10090000136009E07B685B78002B05D1054B1B6801
:10091000044A23F00203136000BF0C37BD4680BCBD
:10092000704700BF10E000E0000000202800002019
:1009300080B400AF064B00221A60054B1B68044AC6
:1009400023F00103136000BFBD4680BC704700BFA9
:1009500010E000E080B582B000AF7860124B1B68F9
:10096000114A43F001031360104B1B781A467B6851
:1009700003FB02F34FF47A7202FB03F30C4A013BD0
:100980001360094B1B685B0803F00103002B04D1C3
:1009900000BF084B1B68002BFBD1FFF7C9FF00BF4E
:1009A0000837BD4680BD00BF10E000E00000002019
:1009B00014E000E018E000E080B500AF024B1B68D7
:1009C0005B68984700BF80BD2800002080B400AF5E
:1009D0000E4B1B680D4A43F0010313600C4B0722BA
:1009E0001A600C4B4CF250321A604FF080431B6877
:1009F0004FF0804243F00103136000BF064B1B68B9
:100A0000002BFBD000BFBD4680BC70471C100240CD
:100A1000280000402C0000401000004080B483B04B
:100A200000AF7860064B00221A6000BF044B1A68C2
:100A30007B689A42FAD300BF0C37BD4680BC704732
:100A40002400004080B584B000AF78600023FB60D4
:100A50000023FB6006E04FF47A70FFF7DFFFFB68CE
:100A60000133FB60FA687B689A42F4DB00BF103701
:100A7000BD4680BD80B584B000AF786039607B68CA
:100A8000634A934210D1634B9B69624A43F48043AB
:100A90009361614B00221A705F4B1B7819465F4AC5
:100AA0003B6842F8213028E07B685D4A934210D1D0
:100AB000584BDB69574A43F40033D361564B01224C
:100AC0001A70554B1B781946544A3B6842F821303E
:100AD00013E07B68534A93420FD14E4BDB694D4A7A
:100AE00043F48023D3614C4B02221A704A4B1B788B
:100AF00019464A4A3B6842F821307B68DB6843F478
:100B000000527B68DA607B68DB683A6812781A43C7
:100B10007B68DA607B68DB683A68127A1A437B6824
:100B2000DA607B68DB683A68527A1A437B68DA607D
:100B30007B681B693A68927A1A437B681A617B6802
:100B40005B693A68D27A1A437B685A617B68304A9B
:100B5000934203D1FFF770FCF86002E0FFF758FC06
:100B6000F8603B685B681B01FA68B2FBF3F319019C
:100B7000FA6813469B0013449A001A443B685B686A
:100B80009B00B2FBF3F23B685B681B01F868B0FBAB
:100B9000F3F3642000FB03F3D31A1B01224AA2FBE8
:100BA00003235B0903F00F030B43BB607B68BA6848
:100BB0009A603B681B7B002B26D07B68DB683A6819
:100BC000127B1A437B68DA607B68114A934206D134
:100BD000164B1B68154A43F02003136014E07B6832
:100BE0000F4A934206D1114B1B68104A43F0400351
:100BF000136009E07B680B4A934205D10B4B1B68DD
:100C00000A4A43F08003136000BF1037BD4680BD21
:100C10000038014000100240380000202C00002065
:100C200000440040004800401F85EB5104E100E013
:100C300080B485B000AFF860B9601346FB71FB79F2
:100C4000002B06D100BFFB681B6803F08003002B5C
:100C5000F9D0FB680F4A934203D10F4B00221A7060
:100C60000EE0FB680D4A934203D10B4B01221A7030
:100C700006E0FB680A4A934202D1074B02221A702F
:100C8000BB681B88DAB2FB685A6000BF1437BD46E8
:100C900080BC70470038014038000020004400400C
:100CA0000048004080B584B000AF78607B682B4A74
:100CB000934218D14FF40073BB810623BB73032307
:100CC000FB7307F10C0319462548FFF7B4FA4FF4FC
:100CD0008063BB810823BB7307F10C0319462048CE
:100CE000FFF7A9FA36E07B681E4A934216D1042327
:100CF000BB810623BB730123FB7307F10C03194669
:100D00001748FFF798FA0823BB810823BB7307F144
:100D10000C0319461248FFF78EFA1BE07B68124A53
:100D2000934217D14FF48063BB810623BB73012329
:100D3000FB7307F10C0319460C48FFF77CFA4FF4DC
:100D40000063BB810823BB7307F10C0319460748F6
:100D5000FFF771FA00BF1037BD4680BD0038014073
:100D6000000801400044004000480040000C0140E1
:100D700080B500AF024B1B681B69984700BF80BD60
:100D80002C00002080B500AF024B5B681B699847C0
:100D900000BF80BD2C00002080B500AF024B9B68D7
:100DA0001B69984700BF80BD2C00002080B500AFB4
:100DB0000A20FFF7CFFD00BF80BD000080B483B0E4
:100DC00000AF03463A60FB710B46BB803B68002BCB
:100DD00013D0FB79022B10D8FB790A4ADB001344AD
:100DE000BA889A80FB7907493A6841F83320FB7941
:100DF000044ADB00134402229A7100BF0C37BD463F
:100E000080BC70473C00002080B582B000AF1B4B17
:100E10001B889BB201339AB2184B1A800023FB71D6
:100E200024E0FB79164ADB0013449B79022B1AD18C
:100E3000124B1B889AB2FB791149DB000B449B884B
:100E4000B2FBF3F103FB01F3D31A9BB2002B0AD1DF
:100E5000FB790B4A52F83330002B04D0FB79084A57
:100E600052F833309847FB790133FB71FB79022B41
:100E7000D7D900BF0837BD4680BD00BF5400002051
:100E80003C00002080B500AF154B9B69144A43F02D
:100E90000403936113491448FFF7CDF9134912482D
:100EA000FFF7C9F912491348FFF7DAFA1148FFF7BB
:100EB000A7FB11490C48FFF7BEF9012210210A488F
:100EC000FFF75DFA0D490E48FFF7D4FD0C48FFF718
:100ED000E9FEFFF77BFD0B48FFF7E4FC00BF80BD98
:100EE0000010024048110008000801404C110008A1
:100EF0006811000800300140801100088C110008C2
:100F0000003801408411000880B500AFFFF7BAFF38
:100F1000084A0A210020FFF751FF074A3221012029
:100F2000FFF74CFF054A32210220FFF747FFFFF78A
:100F30003DFFFEE7410F0008E90F000855100008CB
:100F400080B584B000AF02212548FFF701FA0346BF
:100F5000FB6004212248FFF7FBF90346BB60142025
:100F6000FFF770FD02211E48FFF7F2F903467B6090
:100F700004211B48FFF7ECF903463B60FA687B68E5
:100F80009A4203D0BA683B689A4222D17B68002B10
:100F900006D03B68002B03D0124B03221A7017E0D7
:100FA0007B68002B06D0FB68002B03D00D4B012281
:100FB0001A700DE03B68002B06D0BB68002B03D0F5
:100FC000084B02221A7003E0064B04221A7003E059
:100FD00002E0044B04221A7000BF1037BD4680BDEA
:100FE000000801405700002080B500AF164B1B7869
:100FF000042B1DD801A252F823F000BF11100008E5
:1010000019100008211000083110000829100008EC
:101010000E4B00221A700FE00C4B01221A700BE0ED
:101020000A4B02221A7007E0084B04221A7003E0F0
:10103000064B05221A7000BF012204490448FFF73D
:10104000BBFA00BF80BD00BF570000208900002010
:101050000030014080B500AF0A4B1A780A4B1B786C
:101060009A420CD0084B1A78064B1A70054B1A7826
:10107000064B1A70012205490548FFF7D9FD00BF4C
:1010800080BD00BF560000205700002088000020CF
:10109000003801400D488546AFF300800C480D49EB
:1010A0000D4A002302E0D458C4500433C4188C42C3
:1010B000F9D30A4A0A4C002301E013600432A24229
:1010C000FBD300F011F8FFF71FFFFEE700500020F0
:1010D0000000002004000020A811000804000020E7
:1010E0008C000020FEE7000070B500250C4E0D4C72
:1010F000A41BA410A54209D100F01AF800250A4E3D
:101100000A4CA41BA410A54205D170BD56F8253089
:1011100098470135EEE756F8253098470135F2E754
:10112000A0110008A0110008A0110008A4110008D7
:10113000F8B500BFF8BC08BC9E467047F8B500BFC4
:08114000F8BC08BC9E46704794
:101148000200010004000100000000000102030485
:10115800000000000000000001020304060708095F
:10116800040000000000000002000100000310005D
:101178000000000000000000100004010001000051
:10118800090E00080C000000802500000000000087
:0811980000000000000000004F
:0411A00055010008ED
:0411A400310100080D
:0411A8000100000042
:04000005080010954A
:00000001FF
